{
  "contractName": "MasterRegistry",
  "abi": [
    {
      "inputs": [],
      "name": "InvalidBatchLength",
      "type": "error"
    },
    {
      "inputs": [],
      "name": "InvalidRegistryAddress",
      "type": "error"
    },
    {
      "inputs": [],
      "name": "OnlyAttesteeOrAttestor",
      "type": "error"
    },
    {
      "inputs": [],
      "name": "OnlyRegisteredAttestors",
      "type": "error"
    },
    {
      "anonymous": false,
      "inputs": [
        {
          "components": [
            {
              "internalType": "bytes32",
              "name": "attestationId",
              "type": "bytes32"
            },
            {
              "internalType": "bytes32",
              "name": "schemaId",
              "type": "bytes32"
            },
            {
              "internalType": "bytes32",
              "name": "parentId",
              "type": "bytes32"
            },
            {
              "internalType": "address",
              "name": "attester",
              "type": "address"
            },
            {
              "internalType": "address",
              "name": "attestee",
              "type": "address"
            },
            {
              "internalType": "address",
              "name": "attestor",
              "type": "address"
            },
            {
              "internalType": "uint64",
              "name": "attestedDate",
              "type": "uint64"
            },
            {
              "internalType": "uint64",
              "name": "updatedDate",
              "type": "uint64"
            },
            {
              "internalType": "uint64",
              "name": "expirationDate",
              "type": "uint64"
            },
            {
              "internalType": "bool",
              "name": "isPrivate",
              "type": "bool"
            },
            {
              "internalType": "bool",
              "name": "revoked",
              "type": "bool"
            },
            {
              "internalType": "bytes[]",
              "name": "attestationData",
              "type": "bytes[]"
            }
          ],
          "indexed": false,
          "internalType": "struct Attestation",
          "name": "attestation",
          "type": "tuple"
        }
      ],
      "name": "AttestationRecorded",
      "type": "event"
    },
    {
      "anonymous": false,
      "inputs": [
        {
          "indexed": true,
          "internalType": "bytes32",
          "name": "attestationId",
          "type": "bytes32"
        }
      ],
      "name": "AttestationRevoked",
      "type": "event"
    },
    {
      "anonymous": false,
      "inputs": [
        {
          "components": [
            {
              "internalType": "bytes32",
              "name": "attestationId",
              "type": "bytes32"
            },
            {
              "internalType": "uint64",
              "name": "expirationDate",
              "type": "uint64"
            },
            {
              "internalType": "bytes[]",
              "name": "attestationData",
              "type": "bytes[]"
            }
          ],
          "indexed": false,
          "internalType": "struct UpdateRequest",
          "name": "updateRequest",
          "type": "tuple"
        }
      ],
      "name": "AttestationUpdated",
      "type": "event"
    },
    {
      "anonymous": false,
      "inputs": [
        {
          "indexed": true,
          "internalType": "address",
          "name": "attestorsRegistry",
          "type": "address"
        }
      ],
      "name": "AttestorsRegistrySet",
      "type": "event"
    },
    {
      "anonymous": false,
      "inputs": [
        {
          "components": [
            {
              "internalType": "bytes32",
              "name": "attestationId",
              "type": "bytes32"
            },
            {
              "internalType": "bytes32",
              "name": "schemaId",
              "type": "bytes32"
            },
            {
              "internalType": "bytes32",
              "name": "parentId",
              "type": "bytes32"
            },
            {
              "internalType": "address",
              "name": "attester",
              "type": "address"
            },
            {
              "internalType": "address",
              "name": "attestee",
              "type": "address"
            },
            {
              "internalType": "address",
              "name": "attestor",
              "type": "address"
            },
            {
              "internalType": "uint64",
              "name": "attestedDate",
              "type": "uint64"
            },
            {
              "internalType": "uint64",
              "name": "updatedDate",
              "type": "uint64"
            },
            {
              "internalType": "uint64",
              "name": "expirationDate",
              "type": "uint64"
            },
            {
              "internalType": "bool",
              "name": "isPrivate",
              "type": "bool"
            },
            {
              "internalType": "bool",
              "name": "revoked",
              "type": "bool"
            },
            {
              "internalType": "bytes[]",
              "name": "attestationData",
              "type": "bytes[]"
            }
          ],
          "indexed": false,
          "internalType": "struct Attestation[]",
          "name": "attestations",
          "type": "tuple[]"
        }
      ],
      "name": "BatchAttestationRecorded",
      "type": "event"
    },
    {
      "anonymous": false,
      "inputs": [
        {
          "indexed": true,
          "internalType": "bytes32[]",
          "name": "attestationIds",
          "type": "bytes32[]"
        }
      ],
      "name": "BatchAttestationRevoked",
      "type": "event"
    },
    {
      "anonymous": false,
      "inputs": [
        {
          "components": [
            {
              "internalType": "bytes32",
              "name": "attestationId",
              "type": "bytes32"
            },
            {
              "internalType": "uint64",
              "name": "expirationDate",
              "type": "uint64"
            },
            {
              "internalType": "bytes[]",
              "name": "attestationData",
              "type": "bytes[]"
            }
          ],
          "indexed": false,
          "internalType": "struct UpdateRequest[]",
          "name": "updateRequests",
          "type": "tuple[]"
        }
      ],
      "name": "BatchAttestationUpdated",
      "type": "event"
    },
    {
      "anonymous": false,
      "inputs": [
        {
          "indexed": true,
          "internalType": "address",
          "name": "modulesRegistry",
          "type": "address"
        }
      ],
      "name": "ModulesRegistrySet",
      "type": "event"
    },
    {
      "anonymous": false,
      "inputs": [
        {
          "indexed": true,
          "internalType": "address",
          "name": "previousOwner",
          "type": "address"
        },
        {
          "indexed": true,
          "internalType": "address",
          "name": "newOwner",
          "type": "address"
        }
      ],
      "name": "OwnershipTransferred",
      "type": "event"
    },
    {
      "anonymous": false,
      "inputs": [
        {
          "indexed": true,
          "internalType": "address",
          "name": "schemasRegistry",
          "type": "address"
        }
      ],
      "name": "SchemasRegistrySet",
      "type": "event"
    },
    {
      "inputs": [],
      "name": "$attestorsRegistry",
      "outputs": [
        {
          "internalType": "contract AttestorsRegistry",
          "name": "",
          "type": "address"
        }
      ],
      "stateMutability": "view",
      "type": "function"
    },
    {
      "inputs": [],
      "name": "$modulesRegistry",
      "outputs": [
        {
          "internalType": "contract ModulesRegistry",
          "name": "",
          "type": "address"
        }
      ],
      "stateMutability": "view",
      "type": "function"
    },
    {
      "inputs": [],
      "name": "$schemasRegistry",
      "outputs": [
        {
          "internalType": "contract SchemasRegistry",
          "name": "",
          "type": "address"
        }
      ],
      "stateMutability": "view",
      "type": "function"
    },
    {
      "inputs": [],
      "name": "owner",
      "outputs": [
        {
          "internalType": "address",
          "name": "",
          "type": "address"
        }
      ],
      "stateMutability": "view",
      "type": "function"
    },
    {
      "inputs": [],
      "name": "renounceOwnership",
      "outputs": [],
      "stateMutability": "nonpayable",
      "type": "function"
    },
    {
      "inputs": [
        {
          "internalType": "address",
          "name": "newOwner",
          "type": "address"
        }
      ],
      "name": "transferOwnership",
      "outputs": [],
      "stateMutability": "nonpayable",
      "type": "function"
    },
    {
      "inputs": [
        {
          "internalType": "address",
          "name": "_attestorsRegistry",
          "type": "address"
        }
      ],
      "name": "setAttestorsRegistry",
      "outputs": [],
      "stateMutability": "nonpayable",
      "type": "function"
    },
    {
      "inputs": [
        {
          "internalType": "address",
          "name": "_schemasRegistry",
          "type": "address"
        }
      ],
      "name": "setSchemasRegistry",
      "outputs": [],
      "stateMutability": "nonpayable",
      "type": "function"
    },
    {
      "inputs": [
        {
          "internalType": "address",
          "name": "_modulesRegistry",
          "type": "address"
        }
      ],
      "name": "setModulesRegistry",
      "outputs": [],
      "stateMutability": "nonpayable",
      "type": "function"
    },
    {
      "inputs": [
        {
          "components": [
            {
              "internalType": "bytes32",
              "name": "attestationId",
              "type": "bytes32"
            },
            {
              "internalType": "bytes32",
              "name": "schemaId",
              "type": "bytes32"
            },
            {
              "internalType": "bytes32",
              "name": "parentId",
              "type": "bytes32"
            },
            {
              "internalType": "address",
              "name": "attester",
              "type": "address"
            },
            {
              "internalType": "address",
              "name": "attestee",
              "type": "address"
            },
            {
              "internalType": "address",
              "name": "attestor",
              "type": "address"
            },
            {
              "internalType": "uint64",
              "name": "attestedDate",
              "type": "uint64"
            },
            {
              "internalType": "uint64",
              "name": "updatedDate",
              "type": "uint64"
            },
            {
              "internalType": "uint64",
              "name": "expirationDate",
              "type": "uint64"
            },
            {
              "internalType": "bool",
              "name": "isPrivate",
              "type": "bool"
            },
            {
              "internalType": "bool",
              "name": "revoked",
              "type": "bool"
            },
            {
              "internalType": "bytes[]",
              "name": "attestationData",
              "type": "bytes[]"
            }
          ],
          "internalType": "struct Attestation",
          "name": "_attestation",
          "type": "tuple"
        }
      ],
      "name": "attest",
      "outputs": [],
      "stateMutability": "nonpayable",
      "type": "function"
    },
    {
      "inputs": [
        {
          "components": [
            {
              "internalType": "bytes32",
              "name": "attestationId",
              "type": "bytes32"
            },
            {
              "internalType": "bytes32",
              "name": "schemaId",
              "type": "bytes32"
            },
            {
              "internalType": "bytes32",
              "name": "parentId",
              "type": "bytes32"
            },
            {
              "internalType": "address",
              "name": "attester",
              "type": "address"
            },
            {
              "internalType": "address",
              "name": "attestee",
              "type": "address"
            },
            {
              "internalType": "address",
              "name": "attestor",
              "type": "address"
            },
            {
              "internalType": "uint64",
              "name": "attestedDate",
              "type": "uint64"
            },
            {
              "internalType": "uint64",
              "name": "updatedDate",
              "type": "uint64"
            },
            {
              "internalType": "uint64",
              "name": "expirationDate",
              "type": "uint64"
            },
            {
              "internalType": "bool",
              "name": "isPrivate",
              "type": "bool"
            },
            {
              "internalType": "bool",
              "name": "revoked",
              "type": "bool"
            },
            {
              "internalType": "bytes[]",
              "name": "attestationData",
              "type": "bytes[]"
            }
          ],
          "internalType": "struct Attestation[]",
          "name": "_attestations",
          "type": "tuple[]"
        }
      ],
      "name": "attestBatch",
      "outputs": [],
      "stateMutability": "nonpayable",
      "type": "function"
    },
    {
      "inputs": [
        {
          "components": [
            {
              "internalType": "bytes32",
              "name": "attestationId",
              "type": "bytes32"
            },
            {
              "internalType": "uint64",
              "name": "expirationDate",
              "type": "uint64"
            },
            {
              "internalType": "bytes[]",
              "name": "attestationData",
              "type": "bytes[]"
            }
          ],
          "internalType": "struct UpdateRequest",
          "name": "_updateRequest",
          "type": "tuple"
        }
      ],
      "name": "update",
      "outputs": [],
      "stateMutability": "nonpayable",
      "type": "function"
    },
    {
      "inputs": [
        {
          "components": [
            {
              "internalType": "bytes32",
              "name": "attestationId",
              "type": "bytes32"
            },
            {
              "internalType": "uint64",
              "name": "expirationDate",
              "type": "uint64"
            },
            {
              "internalType": "bytes[]",
              "name": "attestationData",
              "type": "bytes[]"
            }
          ],
          "internalType": "struct UpdateRequest[]",
          "name": "_updateRequests",
          "type": "tuple[]"
        }
      ],
      "name": "updateBatch",
      "outputs": [],
      "stateMutability": "nonpayable",
      "type": "function"
    },
    {
      "inputs": [
        {
          "internalType": "bytes32",
          "name": "attestationId",
          "type": "bytes32"
        }
      ],
      "name": "revoke",
      "outputs": [],
      "stateMutability": "nonpayable",
      "type": "function"
    },
    {
      "inputs": [
        {
          "internalType": "bytes32[]",
          "name": "attestationIds",
          "type": "bytes32[]"
        }
      ],
      "name": "revokeBatch",
      "outputs": [],
      "stateMutability": "nonpayable",
      "type": "function"
    },
    {
      "inputs": [],
      "name": "getSchemasRegistry",
      "outputs": [
        {
          "internalType": "address",
          "name": "",
          "type": "address"
        }
      ],
      "stateMutability": "view",
      "type": "function"
    },
    {
      "inputs": [],
      "name": "getModulesRegistry",
      "outputs": [
        {
          "internalType": "address",
          "name": "",
          "type": "address"
        }
      ],
      "stateMutability": "view",
      "type": "function"
    },
    {
      "inputs": [],
      "name": "getAttestorsRegistry",
      "outputs": [
        {
          "internalType": "address",
          "name": "",
          "type": "address"
        }
      ],
      "stateMutability": "view",
      "type": "function"
    },
    {
      "inputs": [
        {
          "internalType": "bytes32",
          "name": "attestationId",
          "type": "bytes32"
        }
      ],
      "name": "getAttestation",
      "outputs": [
        {
          "components": [
            {
              "internalType": "bytes32",
              "name": "attestationId",
              "type": "bytes32"
            },
            {
              "internalType": "bytes32",
              "name": "schemaId",
              "type": "bytes32"
            },
            {
              "internalType": "bytes32",
              "name": "parentId",
              "type": "bytes32"
            },
            {
              "internalType": "address",
              "name": "attester",
              "type": "address"
            },
            {
              "internalType": "address",
              "name": "attestee",
              "type": "address"
            },
            {
              "internalType": "address",
              "name": "attestor",
              "type": "address"
            },
            {
              "internalType": "uint64",
              "name": "attestedDate",
              "type": "uint64"
            },
            {
              "internalType": "uint64",
              "name": "updatedDate",
              "type": "uint64"
            },
            {
              "internalType": "uint64",
              "name": "expirationDate",
              "type": "uint64"
            },
            {
              "internalType": "bool",
              "name": "isPrivate",
              "type": "bool"
            },
            {
              "internalType": "bool",
              "name": "revoked",
              "type": "bool"
            },
            {
              "internalType": "bytes[]",
              "name": "attestationData",
              "type": "bytes[]"
            }
          ],
          "internalType": "struct Attestation",
          "name": "",
          "type": "tuple"
        }
      ],
      "stateMutability": "view",
      "type": "function"
    },
    {
      "inputs": [
        {
          "internalType": "address",
          "name": "attestee",
          "type": "address"
        },
        {
          "internalType": "bytes32",
          "name": "schema",
          "type": "bytes32"
        }
      ],
      "name": "getAttestationIdsBySchema",
      "outputs": [
        {
          "internalType": "bytes32[]",
          "name": "",
          "type": "bytes32[]"
        }
      ],
      "stateMutability": "view",
      "type": "function"
    },
    {
      "inputs": [
        {
          "internalType": "address",
          "name": "attestee",
          "type": "address"
        },
        {
          "internalType": "bytes32",
          "name": "schema",
          "type": "bytes32"
        }
      ],
      "name": "hasAttestation",
      "outputs": [
        {
          "internalType": "bool",
          "name": "",
          "type": "bool"
        }
      ],
      "stateMutability": "view",
      "type": "function"
    },
    {
      "inputs": [
        {
          "internalType": "bytes32",
          "name": "attestationId",
          "type": "bytes32"
        }
      ],
      "name": "getAttestationSchemaId",
      "outputs": [
        {
          "internalType": "bytes32",
          "name": "",
          "type": "bytes32"
        }
      ],
      "stateMutability": "view",
      "type": "function"
    }
  ],
  "bytecode": "0x60806040523480156200001157600080fd5b5062000032620000266200003860201b60201c565b6200004060201b60201c565b62000104565b600033905090565b60008060009054906101000a900473ffffffffffffffffffffffffffffffffffffffff169050816000806101000a81548173ffffffffffffffffffffffffffffffffffffffff021916908373ffffffffffffffffffffffffffffffffffffffff1602179055508173ffffffffffffffffffffffffffffffffffffffff168173ffffffffffffffffffffffffffffffffffffffff167f8be0079c531659141344cd1fd0a4f28419497f9722a3daafe3b4186f6b6457e060405160405180910390a35050565b6140a680620001146000396000f3fe608060405234801561001057600080fd5b50600436106101425760003560e01c8063a9f4abcb116100b8578063de1541851161007c578063de1541851461033d578063e9354b871461035b578063eb6a171214610377578063ef4d6e0214610393578063effd9e49146103c3578063f2fde38b146103df57610142565b8063a9f4abcb146102ad578063b4906de5146102c9578063b75c7dc6146102e7578063d501f2f314610303578063d53dd1ba1461031f57610142565b8063715018a61161010a578063715018a6146101eb57806386cefe40146101f55780638b9706e1146102135780638da5cb5b1461024357806399a774b414610261578063a3112a641461027d57610142565b806334dbf709146101475780633a3510d1146101635780633a875487146101935780635ab1c2aa146101af5780635bc0e642146101cd575b600080fd5b610161600480360381019061015c9190612afc565b6103fb565b005b61017d60048036038101906101789190612b45565b610669565b60405161018a9190612b81565b60405180910390f35b6101ad60048036038101906101a89190613031565b610689565b005b6101b7610aef565b6040516101c49190613089565b60405180910390f35b6101d5610b19565b6040516101e29190613103565b60405180910390f35b6101f3610b3f565b005b6101fd610b53565b60405161020a919061313f565b60405180910390f35b61022d6004803603810190610228919061315a565b610b79565b60405161023a9190613258565b60405180910390f35b61024b610c28565b6040516102589190613089565b60405180910390f35b61027b600480360381019061027691906132fa565b610c51565b005b61029760048036038101906102929190612b45565b611299565b6040516102a491906135b5565b60405180910390f35b6102c760048036038101906102c291906135d7565b61158c565b005b6102d1611917565b6040516102de9190613089565b60405180910390f35b61030160048036038101906102fc9190612b45565b611941565b005b61031d60048036038101906103189190613620565b611ad9565b005b610327611bce565b604051610334919061366e565b60405180910390f35b610345611bf4565b6040516103529190613089565b60405180910390f35b6103756004803603810190610370919061376a565b611c1e565b005b610391600480360381019061038c9190613620565b612327565b005b6103ad60048036038101906103a8919061315a565b61241c565b6040516103ba91906137c2565b60405180910390f35b6103dd60048036038101906103d89190613620565b6124ce565b005b6103f960048036038101906103f49190613620565b6125c3565b005b6000815103610436576040517fca3487f700000000000000000000000000000000000000000000000000000000815260040160405180910390fd5b60008151905060005b81811015610622576000600460008584815181106104605761045f6137dd565b5b6020026020010151815260200190815260200160002060040160009054906101000a900473ffffffffffffffffffffffffffffffffffffffff1690506000600460008685815181106104b5576104b46137dd565b5b6020026020010151815260200190815260200160002060050160009054906101000a900473ffffffffffffffffffffffffffffffffffffffff1690508173ffffffffffffffffffffffffffffffffffffffff163373ffffffffffffffffffffffffffffffffffffffff161415801561055957508073ffffffffffffffffffffffffffffffffffffffff163373ffffffffffffffffffffffffffffffffffffffff1614155b15610590576040517f5042f52900000000000000000000000000000000000000000000000000000000815260040160405180910390fd5b6001600460008786815181106105a9576105a86137dd565b5b6020026020010151815260200190815260200160002060060160116101000a81548160ff021916908315150217905550600460008685815181106105f0576105ef6137dd565b5b6020026020010151815260200190815260200160002060070160006106159190612790565b826001019250505061043f565b5081604051610631919061389c565b60405180910390207f5c38ce54d7495d91b2b4370ff21bf48a492d02f9c27da80d915a8e53c9adba8960405160405180910390a25050565b600060046000838152602001908152602001600020600101549050919050565b600160009054906101000a900473ffffffffffffffffffffffffffffffffffffffff1673ffffffffffffffffffffffffffffffffffffffff1663c3c5a547336040518263ffffffff1660e01b81526004016106e49190613089565b602060405180830381865afa158015610701573d6000803e3d6000fd5b505050506040513d601f19601f8201168201806040525081019061072591906138c8565b61075b576040517f12c9be2600000000000000000000000000000000000000000000000000000000815260040160405180910390fd5b6000815103610796576040517fca3487f700000000000000000000000000000000000000000000000000000000815260040160405180910390fd5b60008151905060005b81811015610ab3578281815181106107ba576107b96137dd565b5b6020026020010151600460008584815181106107d9576107d86137dd565b5b602002602001015160000151815260200190815260200160002060008201518160000155602082015181600101556040820151816002015560608201518160030160006101000a81548173ffffffffffffffffffffffffffffffffffffffff021916908373ffffffffffffffffffffffffffffffffffffffff16021790555060808201518160040160006101000a81548173ffffffffffffffffffffffffffffffffffffffff021916908373ffffffffffffffffffffffffffffffffffffffff16021790555060a08201518160050160006101000a81548173ffffffffffffffffffffffffffffffffffffffff021916908373ffffffffffffffffffffffffffffffffffffffff16021790555060c08201518160050160146101000a81548167ffffffffffffffff021916908367ffffffffffffffff16021790555060e08201518160060160006101000a81548167ffffffffffffffff021916908367ffffffffffffffff1602179055506101008201518160060160086101000a81548167ffffffffffffffff021916908367ffffffffffffffff1602179055506101208201518160060160106101000a81548160ff0219169083151502179055506101408201518160060160116101000a81548160ff0219169083151502179055506101608201518160070190805190602001906109d39291906127b1565b50905050600560008483815181106109ee576109ed6137dd565b5b60200260200101516080015173ffffffffffffffffffffffffffffffffffffffff1673ffffffffffffffffffffffffffffffffffffffff1681526020019081526020016000206000848381518110610a4957610a486137dd565b5b6020026020010151602001518152602001908152602001600020838281518110610a7657610a756137dd565b5b602002602001015160000151908060018154018082558091505060019003906000526020600020016000909190919091505580600101905061079f565b507ff9f8061ec7e7484388d9f287397f4a093bf22cc9ee1faf6cdc25cc187d1611a382604051610ae39190613abb565b60405180910390a15050565b6000600160009054906101000a900473ffffffffffffffffffffffffffffffffffffffff16905090565b600360009054906101000a900473ffffffffffffffffffffffffffffffffffffffff1681565b610b47612646565b610b5160006126c4565b565b600260009054906101000a900473ffffffffffffffffffffffffffffffffffffffff1681565b60606000600560008573ffffffffffffffffffffffffffffffffffffffff1673ffffffffffffffffffffffffffffffffffffffff1681526020019081526020016000206000848152602001908152602001600020805480602002602001604051908101604052809291908181526020018280548015610c1757602002820191906000526020600020905b815481526020019060010190808311610c03575b505050505090508091505092915050565b60008060009054906101000a900473ffffffffffffffffffffffffffffffffffffffff16905090565b600160009054906101000a900473ffffffffffffffffffffffffffffffffffffffff1673ffffffffffffffffffffffffffffffffffffffff1663c3c5a547336040518263ffffffff1660e01b8152600401610cac9190613089565b602060405180830381865afa158015610cc9573d6000803e3d6000fd5b505050506040513d601f19601f82011682018060405250810190610ced91906138c8565b610d23576040517f12c9be2600000000000000000000000000000000000000000000000000000000815260040160405180910390fd5b60006004600083600001518152602001908152602001600020604051806101800160405290816000820154815260200160018201548152602001600282015481526020016003820160009054906101000a900473ffffffffffffffffffffffffffffffffffffffff1673ffffffffffffffffffffffffffffffffffffffff1673ffffffffffffffffffffffffffffffffffffffff1681526020016004820160009054906101000a900473ffffffffffffffffffffffffffffffffffffffff1673ffffffffffffffffffffffffffffffffffffffff1673ffffffffffffffffffffffffffffffffffffffff1681526020016005820160009054906101000a900473ffffffffffffffffffffffffffffffffffffffff1673ffffffffffffffffffffffffffffffffffffffff1673ffffffffffffffffffffffffffffffffffffffff1681526020016005820160149054906101000a900467ffffffffffffffff1667ffffffffffffffff1667ffffffffffffffff1681526020016006820160009054906101000a900467ffffffffffffffff1667ffffffffffffffff1667ffffffffffffffff1681526020016006820160089054906101000a900467ffffffffffffffff1667ffffffffffffffff1667ffffffffffffffff1681526020016006820160109054906101000a900460ff161515151581526020016006820160119054906101000a900460ff1615151515815260200160078201805480602002602001604051908101604052809291908181526020016000905b82821015611005578382906000526020600020018054610f7890613b0c565b80601f0160208091040260200160405190810160405280929190818152602001828054610fa490613b0c565b8015610ff15780601f10610fc657610100808354040283529160200191610ff1565b820191906000526020600020905b815481529060010190602001808311610fd457829003601f168201915b505050505081526020019060010190610f59565b50505050815250509050428160e0019067ffffffffffffffff16908167ffffffffffffffff1681525050816020015181610100019067ffffffffffffffff16908167ffffffffffffffff1681525050816040015181610160018190525080600460008460000151815260200190815260200160002060008201518160000155602082015181600101556040820151816002015560608201518160030160006101000a81548173ffffffffffffffffffffffffffffffffffffffff021916908373ffffffffffffffffffffffffffffffffffffffff16021790555060808201518160040160006101000a81548173ffffffffffffffffffffffffffffffffffffffff021916908373ffffffffffffffffffffffffffffffffffffffff16021790555060a08201518160050160006101000a81548173ffffffffffffffffffffffffffffffffffffffff021916908373ffffffffffffffffffffffffffffffffffffffff16021790555060c08201518160050160146101000a81548167ffffffffffffffff021916908367ffffffffffffffff16021790555060e08201518160060160006101000a81548167ffffffffffffffff021916908367ffffffffffffffff1602179055506101008201518160060160086101000a81548167ffffffffffffffff021916908367ffffffffffffffff1602179055506101208201518160060160106101000a81548160ff0219169083151502179055506101408201518160060160116101000a81548160ff02191690831515021790555061016082015181600701908051906020019061125a9291906127b1565b509050507f5ab555edb09424e8664f35c22712d23488eae07c47093d42cfc2febd24b745058260405161128d9190613b8d565b60405180910390a15050565b6112a161280a565b60046000838152602001908152602001600020604051806101800160405290816000820154815260200160018201548152602001600282015481526020016003820160009054906101000a900473ffffffffffffffffffffffffffffffffffffffff1673ffffffffffffffffffffffffffffffffffffffff1673ffffffffffffffffffffffffffffffffffffffff1681526020016004820160009054906101000a900473ffffffffffffffffffffffffffffffffffffffff1673ffffffffffffffffffffffffffffffffffffffff1673ffffffffffffffffffffffffffffffffffffffff1681526020016005820160009054906101000a900473ffffffffffffffffffffffffffffffffffffffff1673ffffffffffffffffffffffffffffffffffffffff1673ffffffffffffffffffffffffffffffffffffffff1681526020016005820160149054906101000a900467ffffffffffffffff1667ffffffffffffffff1667ffffffffffffffff1681526020016006820160009054906101000a900467ffffffffffffffff1667ffffffffffffffff1667ffffffffffffffff1681526020016006820160089054906101000a900467ffffffffffffffff1667ffffffffffffffff1667ffffffffffffffff1681526020016006820160109054906101000a900460ff161515151581526020016006820160119054906101000a900460ff1615151515815260200160078201805480602002602001604051908101604052809291908181526020016000905b8282101561157d5783829060005260206000200180546114f090613b0c565b80601f016020809104026020016040519081016040528092919081815260200182805461151c90613b0c565b80156115695780601f1061153e57610100808354040283529160200191611569565b820191906000526020600020905b81548152906001019060200180831161154c57829003601f168201915b5050505050815260200190600101906114d1565b50505050815250509050919050565b600160009054906101000a900473ffffffffffffffffffffffffffffffffffffffff1673ffffffffffffffffffffffffffffffffffffffff1663c3c5a547336040518263ffffffff1660e01b81526004016115e79190613089565b602060405180830381865afa158015611604573d6000803e3d6000fd5b505050506040513d601f19601f8201168201806040525081019061162891906138c8565b61165e576040517f12c9be2600000000000000000000000000000000000000000000000000000000815260040160405180910390fd5b80600460008360000151815260200190815260200160002060008201518160000155602082015181600101556040820151816002015560608201518160030160006101000a81548173ffffffffffffffffffffffffffffffffffffffff021916908373ffffffffffffffffffffffffffffffffffffffff16021790555060808201518160040160006101000a81548173ffffffffffffffffffffffffffffffffffffffff021916908373ffffffffffffffffffffffffffffffffffffffff16021790555060a08201518160050160006101000a81548173ffffffffffffffffffffffffffffffffffffffff021916908373ffffffffffffffffffffffffffffffffffffffff16021790555060c08201518160050160146101000a81548167ffffffffffffffff021916908367ffffffffffffffff16021790555060e08201518160060160006101000a81548167ffffffffffffffff021916908367ffffffffffffffff1602179055506101008201518160060160086101000a81548167ffffffffffffffff021916908367ffffffffffffffff1602179055506101208201518160060160106101000a81548160ff0219169083151502179055506101408201518160060160116101000a81548160ff0219169083151502179055506101608201518160070190805190602001906118569291906127b1565b5090505060056000826080015173ffffffffffffffffffffffffffffffffffffffff1673ffffffffffffffffffffffffffffffffffffffff168152602001908152602001600020600082602001518152602001908152602001600020816000015190806001815401808255809150506001900390600052602060002001600090919091909150557fe1cc3cb307ad8041a33006d57e7b9e07f595e14151a66439035b4a33243c5a788160405161190c91906135b5565b60405180910390a150565b6000600360009054906101000a900473ffffffffffffffffffffffffffffffffffffffff16905090565b60006004600083815260200190815260200160002060040160009054906101000a900473ffffffffffffffffffffffffffffffffffffffff16905060006004600084815260200190815260200160002060050160009054906101000a900473ffffffffffffffffffffffffffffffffffffffff1690508173ffffffffffffffffffffffffffffffffffffffff163373ffffffffffffffffffffffffffffffffffffffff1614158015611a1f57508073ffffffffffffffffffffffffffffffffffffffff163373ffffffffffffffffffffffffffffffffffffffff1614155b15611a56576040517f5042f52900000000000000000000000000000000000000000000000000000000815260040160405180910390fd5b60016004600085815260200190815260200160002060060160116101000a81548160ff021916908315150217905550600460008481526020019081526020016000206007016000611aa79190612790565b827f04bed256ad23fe17d61d9248ee108825bf3b1d04527fee36f0ee2af633fc145260405160405180910390a2505050565b611ae1612646565b600073ffffffffffffffffffffffffffffffffffffffff168173ffffffffffffffffffffffffffffffffffffffff1603611b47576040517f7bfd2e8300000000000000000000000000000000000000000000000000000000815260040160405180910390fd5b80600160006101000a81548173ffffffffffffffffffffffffffffffffffffffff021916908373ffffffffffffffffffffffffffffffffffffffff1602179055508073ffffffffffffffffffffffffffffffffffffffff167fef4125b86fc9e28a2f58fd8082987c601685b32b2b0e6fc0dee3517cdb7105b860405160405180910390a250565b600160009054906101000a900473ffffffffffffffffffffffffffffffffffffffff1681565b6000600260009054906101000a900473ffffffffffffffffffffffffffffffffffffffff16905090565b600160009054906101000a900473ffffffffffffffffffffffffffffffffffffffff1673ffffffffffffffffffffffffffffffffffffffff1663c3c5a547336040518263ffffffff1660e01b8152600401611c799190613089565b602060405180830381865afa158015611c96573d6000803e3d6000fd5b505050506040513d601f19601f82011682018060405250810190611cba91906138c8565b611cf0576040517f12c9be2600000000000000000000000000000000000000000000000000000000815260040160405180910390fd5b6000815103611d2b576040517fca3487f700000000000000000000000000000000000000000000000000000000815260040160405180910390fd5b60008151905060005b818110156122eb57600060046000858481518110611d5557611d546137dd565b5b6020026020010151600001518152602001908152602001600020604051806101800160405290816000820154815260200160018201548152602001600282015481526020016003820160009054906101000a900473ffffffffffffffffffffffffffffffffffffffff1673ffffffffffffffffffffffffffffffffffffffff1673ffffffffffffffffffffffffffffffffffffffff1681526020016004820160009054906101000a900473ffffffffffffffffffffffffffffffffffffffff1673ffffffffffffffffffffffffffffffffffffffff1673ffffffffffffffffffffffffffffffffffffffff1681526020016005820160009054906101000a900473ffffffffffffffffffffffffffffffffffffffff1673ffffffffffffffffffffffffffffffffffffffff1673ffffffffffffffffffffffffffffffffffffffff1681526020016005820160149054906101000a900467ffffffffffffffff1667ffffffffffffffff1667ffffffffffffffff1681526020016006820160009054906101000a900467ffffffffffffffff1667ffffffffffffffff1667ffffffffffffffff1681526020016006820160089054906101000a900467ffffffffffffffff1667ffffffffffffffff1667ffffffffffffffff1681526020016006820160109054906101000a900460ff161515151581526020016006820160119054906101000a900460ff1615151515815260200160078201805480602002602001604051908101604052809291908181526020016000905b82821015612038578382906000526020600020018054611fab90613b0c565b80601f0160208091040260200160405190810160405280929190818152602001828054611fd790613b0c565b80156120245780601f10611ff957610100808354040283529160200191612024565b820191906000526020600020905b81548152906001019060200180831161200757829003601f168201915b505050505081526020019060010190611f8c565b50505050815250509050428160e0019067ffffffffffffffff16908167ffffffffffffffff1681525050838281518110612075576120746137dd565b5b60200260200101516020015181610100019067ffffffffffffffff16908167ffffffffffffffff16815250508382815181106120b4576120b36137dd565b5b60200260200101516040015181610160018190525080600460008685815181106120e1576120e06137dd565b5b602002602001015160000151815260200190815260200160002060008201518160000155602082015181600101556040820151816002015560608201518160030160006101000a81548173ffffffffffffffffffffffffffffffffffffffff021916908373ffffffffffffffffffffffffffffffffffffffff16021790555060808201518160040160006101000a81548173ffffffffffffffffffffffffffffffffffffffff021916908373ffffffffffffffffffffffffffffffffffffffff16021790555060a08201518160050160006101000a81548173ffffffffffffffffffffffffffffffffffffffff021916908373ffffffffffffffffffffffffffffffffffffffff16021790555060c08201518160050160146101000a81548167ffffffffffffffff021916908367ffffffffffffffff16021790555060e08201518160060160006101000a81548167ffffffffffffffff021916908367ffffffffffffffff1602179055506101008201518160060160086101000a81548167ffffffffffffffff021916908367ffffffffffffffff1602179055506101208201518160060160106101000a81548160ff0219169083151502179055506101408201518160060160116101000a81548160ff0219169083151502179055506101608201518160070190805190602001906122db9291906127b1565b5090505081600101915050611d34565b507f5ae5fe05e95eab5dc79f554bb7de6a043c05f51834d615d133ea0323ef3663e88260405161231b9190613cc1565b60405180910390a15050565b61232f612646565b600073ffffffffffffffffffffffffffffffffffffffff168173ffffffffffffffffffffffffffffffffffffffff1603612395576040517f7bfd2e8300000000000000000000000000000000000000000000000000000000815260040160405180910390fd5b80600260006101000a81548173ffffffffffffffffffffffffffffffffffffffff021916908373ffffffffffffffffffffffffffffffffffffffff1602179055508073ffffffffffffffffffffffffffffffffffffffff167f96a919cf3802eb6d3785e63453b9a378307fc1b6c31f8ff18e730ea7d37aafd760405160405180910390a250565b600080600560008573ffffffffffffffffffffffffffffffffffffffff1673ffffffffffffffffffffffffffffffffffffffff16815260200190815260200160002060008481526020019081526020016000208054806020026020016040519081016040528092919081815260200182805480156124b957602002820191906000526020600020905b8154815260200190600101908083116124a5575b50505050509050600081511191505092915050565b6124d6612646565b600073ffffffffffffffffffffffffffffffffffffffff168173ffffffffffffffffffffffffffffffffffffffff160361253c576040517f7bfd2e8300000000000000000000000000000000000000000000000000000000815260040160405180910390fd5b80600360006101000a81548173ffffffffffffffffffffffffffffffffffffffff021916908373ffffffffffffffffffffffffffffffffffffffff1602179055508073ffffffffffffffffffffffffffffffffffffffff167fa4df83b141751fb22bf73f84a977db8a923a0d78334152728c722db39857f46660405160405180910390a250565b6125cb612646565b600073ffffffffffffffffffffffffffffffffffffffff168173ffffffffffffffffffffffffffffffffffffffff160361263a576040517f08c379a000000000000000000000000000000000000000000000000000000000815260040161263190613d66565b60405180910390fd5b612643816126c4565b50565b61264e612788565b73ffffffffffffffffffffffffffffffffffffffff1661266c610c28565b73ffffffffffffffffffffffffffffffffffffffff16146126c2576040517f08c379a00000000000000000000000000000000000000000000000000000000081526004016126b990613dd2565b60405180910390fd5b565b60008060009054906101000a900473ffffffffffffffffffffffffffffffffffffffff169050816000806101000a81548173ffffffffffffffffffffffffffffffffffffffff021916908373ffffffffffffffffffffffffffffffffffffffff1602179055508173ffffffffffffffffffffffffffffffffffffffff168173ffffffffffffffffffffffffffffffffffffffff167f8be0079c531659141344cd1fd0a4f28419497f9722a3daafe3b4186f6b6457e060405160405180910390a35050565b600033905090565b50805460008255906000526020600020908101906127ae91906128d8565b50565b8280548282559060005260206000209081019282156127f9579160200282015b828111156127f85782518290816127e89190613f9e565b50916020019190600101906127d1565b5b50905061280691906128d8565b5090565b604051806101800160405280600080191681526020016000801916815260200160008019168152602001600073ffffffffffffffffffffffffffffffffffffffff168152602001600073ffffffffffffffffffffffffffffffffffffffff168152602001600073ffffffffffffffffffffffffffffffffffffffff168152602001600067ffffffffffffffff168152602001600067ffffffffffffffff168152602001600067ffffffffffffffff168152602001600015158152602001600015158152602001606081525090565b5b808211156128f857600081816128ef91906128fc565b506001016128d9565b5090565b50805461290890613b0c565b6000825580601f1061291a5750612939565b601f016020900490600052602060002090810190612938919061293c565b5b50565b5b8082111561295557600081600090555060010161293d565b5090565b6000604051905090565b600080fd5b600080fd5b600080fd5b6000601f19601f8301169050919050565b7f4e487b7100000000000000000000000000000000000000000000000000000000600052604160045260246000fd5b6129bb82612972565b810181811067ffffffffffffffff821117156129da576129d9612983565b5b80604052505050565b60006129ed612959565b90506129f982826129b2565b919050565b600067ffffffffffffffff821115612a1957612a18612983565b5b602082029050602081019050919050565b600080fd5b6000819050919050565b612a4281612a2f565b8114612a4d57600080fd5b50565b600081359050612a5f81612a39565b92915050565b6000612a78612a73846129fe565b6129e3565b90508083825260208201905060208402830185811115612a9b57612a9a612a2a565b5b835b81811015612ac45780612ab08882612a50565b845260208401935050602081019050612a9d565b5050509392505050565b600082601f830112612ae357612ae261296d565b5b8135612af3848260208601612a65565b91505092915050565b600060208284031215612b1257612b11612963565b5b600082013567ffffffffffffffff811115612b3057612b2f612968565b5b612b3c84828501612ace565b91505092915050565b600060208284031215612b5b57612b5a612963565b5b6000612b6984828501612a50565b91505092915050565b612b7b81612a2f565b82525050565b6000602082019050612b966000830184612b72565b92915050565b600067ffffffffffffffff821115612bb757612bb6612983565b5b602082029050602081019050919050565b600080fd5b600080fd5b600073ffffffffffffffffffffffffffffffffffffffff82169050919050565b6000612bfd82612bd2565b9050919050565b612c0d81612bf2565b8114612c1857600080fd5b50565b600081359050612c2a81612c04565b92915050565b600067ffffffffffffffff82169050919050565b612c4d81612c30565b8114612c5857600080fd5b50565b600081359050612c6a81612c44565b92915050565b60008115159050919050565b612c8581612c70565b8114612c9057600080fd5b50565b600081359050612ca281612c7c565b92915050565b600067ffffffffffffffff821115612cc357612cc2612983565b5b602082029050602081019050919050565b600080fd5b600067ffffffffffffffff821115612cf457612cf3612983565b5b612cfd82612972565b9050602081019050919050565b82818337600083830152505050565b6000612d2c612d2784612cd9565b6129e3565b905082815260208101848484011115612d4857612d47612cd4565b5b612d53848285612d0a565b509392505050565b600082601f830112612d7057612d6f61296d565b5b8135612d80848260208601612d19565b91505092915050565b6000612d9c612d9784612ca8565b6129e3565b90508083825260208201905060208402830185811115612dbf57612dbe612a2a565b5b835b81811015612e0657803567ffffffffffffffff811115612de457612de361296d565b5b808601612df18982612d5b565b85526020850194505050602081019050612dc1565b5050509392505050565b600082601f830112612e2557612e2461296d565b5b8135612e35848260208601612d89565b91505092915050565b60006101808284031215612e5557612e54612bc8565b5b612e606101806129e3565b90506000612e7084828501612a50565b6000830152506020612e8484828501612a50565b6020830152506040612e9884828501612a50565b6040830152506060612eac84828501612c1b565b6060830152506080612ec084828501612c1b565b60808301525060a0612ed484828501612c1b565b60a08301525060c0612ee884828501612c5b565b60c08301525060e0612efc84828501612c5b565b60e083015250610100612f1184828501612c5b565b61010083015250610120612f2784828501612c93565b61012083015250610140612f3d84828501612c93565b6101408301525061016082013567ffffffffffffffff811115612f6357612f62612bcd565b5b612f6f84828501612e10565b6101608301525092915050565b6000612f8f612f8a84612b9c565b6129e3565b90508083825260208201905060208402830185811115612fb257612fb1612a2a565b5b835b81811015612ff957803567ffffffffffffffff811115612fd757612fd661296d565b5b808601612fe48982612e3e565b85526020850194505050602081019050612fb4565b5050509392505050565b600082601f8301126130185761301761296d565b5b8135613028848260208601612f7c565b91505092915050565b60006020828403121561304757613046612963565b5b600082013567ffffffffffffffff81111561306557613064612968565b5b61307184828501613003565b91505092915050565b61308381612bf2565b82525050565b600060208201905061309e600083018461307a565b92915050565b6000819050919050565b60006130c96130c46130bf84612bd2565b6130a4565b612bd2565b9050919050565b60006130db826130ae565b9050919050565b60006130ed826130d0565b9050919050565b6130fd816130e2565b82525050565b600060208201905061311860008301846130f4565b92915050565b6000613129826130d0565b9050919050565b6131398161311e565b82525050565b60006020820190506131546000830184613130565b92915050565b6000806040838503121561317157613170612963565b5b600061317f85828601612c1b565b925050602061319085828601612a50565b9150509250929050565b600081519050919050565b600082825260208201905092915050565b6000819050602082019050919050565b6131cf81612a2f565b82525050565b60006131e183836131c6565b60208301905092915050565b6000602082019050919050565b60006132058261319a565b61320f81856131a5565b935061321a836131b6565b8060005b8381101561324b57815161323288826131d5565b975061323d836131ed565b92505060018101905061321e565b5085935050505092915050565b6000602082019050818103600083015261327281846131fa565b905092915050565b6000606082840312156132905761328f612bc8565b5b61329a60606129e3565b905060006132aa84828501612a50565b60008301525060206132be84828501612c5b565b602083015250604082013567ffffffffffffffff8111156132e2576132e1612bcd565b5b6132ee84828501612e10565b60408301525092915050565b6000602082840312156133105761330f612963565b5b600082013567ffffffffffffffff81111561332e5761332d612968565b5b61333a8482850161327a565b91505092915050565b61334c81612bf2565b82525050565b61335b81612c30565b82525050565b61336a81612c70565b82525050565b600081519050919050565b600082825260208201905092915050565b6000819050602082019050919050565b600081519050919050565b600082825260208201905092915050565b60005b838110156133d65780820151818401526020810190506133bb565b60008484015250505050565b60006133ed8261339c565b6133f781856133a7565b93506134078185602086016133b8565b61341081612972565b840191505092915050565b600061342783836133e2565b905092915050565b6000602082019050919050565b600061344782613370565b613451818561337b565b9350836020820285016134638561338c565b8060005b8581101561349f5784840389528151613480858261341b565b945061348b8361342f565b925060208a01995050600181019050613467565b50829750879550505050505092915050565b6000610180830160008301516134ca60008601826131c6565b5060208301516134dd60208601826131c6565b5060408301516134f060408601826131c6565b5060608301516135036060860182613343565b5060808301516135166080860182613343565b5060a083015161352960a0860182613343565b5060c083015161353c60c0860182613352565b5060e083015161354f60e0860182613352565b50610100830151613564610100860182613352565b50610120830151613579610120860182613361565b5061014083015161358e610140860182613361565b506101608301518482036101608601526135a8828261343c565b9150508091505092915050565b600060208201905081810360008301526135cf81846134b1565b905092915050565b6000602082840312156135ed576135ec612963565b5b600082013567ffffffffffffffff81111561360b5761360a612968565b5b61361784828501612e3e565b91505092915050565b60006020828403121561363657613635612963565b5b600061364484828501612c1b565b91505092915050565b6000613658826130d0565b9050919050565b6136688161364d565b82525050565b6000602082019050613683600083018461365f565b92915050565b600067ffffffffffffffff8211156136a4576136a3612983565b5b602082029050602081019050919050565b60006136c86136c384613689565b6129e3565b905080838252602082019050602084028301858111156136eb576136ea612a2a565b5b835b8181101561373257803567ffffffffffffffff8111156137105761370f61296d565b5b80860161371d898261327a565b855260208501945050506020810190506136ed565b5050509392505050565b600082601f8301126137515761375061296d565b5b81356137618482602086016136b5565b91505092915050565b6000602082840312156137805761377f612963565b5b600082013567ffffffffffffffff81111561379e5761379d612968565b5b6137aa8482850161373c565b91505092915050565b6137bc81612c70565b82525050565b60006020820190506137d760008301846137b3565b92915050565b7f4e487b7100000000000000000000000000000000000000000000000000000000600052603260045260246000fd5b600081905092915050565b61382081612a2f565b82525050565b60006138328383613817565b60208301905092915050565b60006138498261319a565b613853818561380c565b935061385e836131b6565b8060005b8381101561388f5781516138768882613826565b9750613881836131ed565b925050600181019050613862565b5085935050505092915050565b60006138a8828461383e565b915081905092915050565b6000815190506138c281612c7c565b92915050565b6000602082840312156138de576138dd612963565b5b60006138ec848285016138b3565b91505092915050565b600081519050919050565b600082825260208201905092915050565b6000819050602082019050919050565b60006101808301600083015161393a60008601826131c6565b50602083015161394d60208601826131c6565b50604083015161396060408601826131c6565b5060608301516139736060860182613343565b5060808301516139866080860182613343565b5060a083015161399960a0860182613343565b5060c08301516139ac60c0860182613352565b5060e08301516139bf60e0860182613352565b506101008301516139d4610100860182613352565b506101208301516139e9610120860182613361565b506101408301516139fe610140860182613361565b50610160830151848203610160860152613a18828261343c565b9150508091505092915050565b6000613a318383613921565b905092915050565b6000602082019050919050565b6000613a51826138f5565b613a5b8185613900565b935083602082028501613a6d85613911565b8060005b85811015613aa95784840389528151613a8a8582613a25565b9450613a9583613a39565b925060208a01995050600181019050613a71565b50829750879550505050505092915050565b60006020820190508181036000830152613ad58184613a46565b905092915050565b7f4e487b7100000000000000000000000000000000000000000000000000000000600052602260045260246000fd5b60006002820490506001821680613b2457607f821691505b602082108103613b3757613b36613add565b5b50919050565b6000606083016000830151613b5560008601826131c6565b506020830151613b686020860182613352565b5060408301518482036040860152613b80828261343c565b9150508091505092915050565b60006020820190508181036000830152613ba78184613b3d565b905092915050565b600081519050919050565b600082825260208201905092915050565b6000819050602082019050919050565b6000606083016000830151613bf360008601826131c6565b506020830151613c066020860182613352565b5060408301518482036040860152613c1e828261343c565b9150508091505092915050565b6000613c378383613bdb565b905092915050565b6000602082019050919050565b6000613c5782613baf565b613c618185613bba565b935083602082028501613c7385613bcb565b8060005b85811015613caf5784840389528151613c908582613c2b565b9450613c9b83613c3f565b925060208a01995050600181019050613c77565b50829750879550505050505092915050565b60006020820190508181036000830152613cdb8184613c4c565b905092915050565b600082825260208201905092915050565b7f4f776e61626c653a206e6577206f776e657220697320746865207a65726f206160008201527f6464726573730000000000000000000000000000000000000000000000000000602082015250565b6000613d50602683613ce3565b9150613d5b82613cf4565b604082019050919050565b60006020820190508181036000830152613d7f81613d43565b9050919050565b7f4f776e61626c653a2063616c6c6572206973206e6f7420746865206f776e6572600082015250565b6000613dbc602083613ce3565b9150613dc782613d86565b602082019050919050565b60006020820190508181036000830152613deb81613daf565b9050919050565b60008190508160005260206000209050919050565b60006020601f8301049050919050565b600082821b905092915050565b600060088302613e547fffffffffffffffffffffffffffffffffffffffffffffffffffffffffffffffff82613e17565b613e5e8683613e17565b95508019841693508086168417925050509392505050565b6000819050919050565b6000613e9b613e96613e9184613e76565b6130a4565b613e76565b9050919050565b6000819050919050565b613eb583613e80565b613ec9613ec182613ea2565b848454613e24565b825550505050565b600090565b613ede613ed1565b613ee9818484613eac565b505050565b5b81811015613f0d57613f02600082613ed6565b600181019050613eef565b5050565b601f821115613f5257613f2381613df2565b613f2c84613e07565b81016020851015613f3b578190505b613f4f613f4785613e07565b830182613eee565b50505b505050565b600082821c905092915050565b6000613f7560001984600802613f57565b1980831691505092915050565b6000613f8e8383613f64565b9150826002028217905092915050565b613fa78261339c565b67ffffffffffffffff811115613fc057613fbf612983565b5b613fca8254613b0c565b613fd5828285613f11565b600060209050601f8311600181146140085760008415613ff6578287015190505b6140008582613f82565b865550614068565b601f19841661401686613df2565b60005b8281101561403e57848901518255600182019150602085019450602081019050614019565b8683101561405b5784890151614057601f891682613f64565b8355505b6001600288020188555050505b50505050505056fea26469706673582212205e39388c9b3c9da67a839d32a42d5e78d831773e01440fd9e9ca3da510fe460064736f6c63430008140033",
  "immutableReferences": {},
  "source": "// SPDX-License-Identifier: MIT\npragma solidity ^0.8.20;\n\nimport \"@openzeppelin/contracts/access/Ownable.sol\";\nimport {AttestorsRegistry} from \"./AttestorsRegistry.sol\";\nimport {SchemasRegistry} from \"./SchemasRegistry.sol\";\nimport {ModulesRegistry} from \"./ModulesRegistry.sol\";\nimport {Attestation, UpdateRequest} from \"./libs/Structs.sol\";\nimport \"./interfaces/IMasterRegistry.sol\";\n\ncontract MasterRegistry is IMasterRegistry, Ownable {\n    AttestorsRegistry public $attestorsRegistry;\n    SchemasRegistry public $schemasRegistry;\n    ModulesRegistry public $modulesRegistry;\n\n    mapping(bytes32 attestationId => Attestation attestation)\n        private $attestations;\n    mapping(address attestee => mapping(bytes32 schemaId => bytes32[]) attestationIds)\n        private $attestationIds;\n\n    modifier onlyAttestor() {\n        if (!$attestorsRegistry.isRegistered(msg.sender))\n            revert OnlyRegisteredAttestors();\n        _;\n    }\n\n    function setAttestorsRegistry(\n        address _attestorsRegistry\n    ) external onlyOwner {\n        if (_attestorsRegistry == address(0)) revert InvalidRegistryAddress();\n        $attestorsRegistry = AttestorsRegistry(_attestorsRegistry);\n\n        emit AttestorsRegistrySet(_attestorsRegistry);\n    }\n\n    function setSchemasRegistry(address _schemasRegistry) external onlyOwner {\n        if (_schemasRegistry == address(0)) revert InvalidRegistryAddress();\n        $schemasRegistry = SchemasRegistry(_schemasRegistry);\n\n        emit SchemasRegistrySet(_schemasRegistry);\n    }\n\n    function setModulesRegistry(address _modulesRegistry) external onlyOwner {\n        if (_modulesRegistry == address(0)) revert InvalidRegistryAddress();\n        $modulesRegistry = ModulesRegistry(_modulesRegistry);\n\n        emit ModulesRegistrySet(_modulesRegistry);\n    }\n\n    // Only the attestor registry can record attestations.\n    function attest(Attestation memory _attestation) external onlyAttestor {\n        $attestations[_attestation.attestationId] = _attestation;\n        $attestationIds[_attestation.attestee][_attestation.schemaId].push(\n            _attestation.attestationId\n        );\n\n        emit AttestationRecorded(_attestation);\n    }\n\n    function attestBatch(\n        Attestation[] memory _attestations\n    ) external onlyAttestor {\n        if (_attestations.length == 0) revert InvalidBatchLength();\n        uint256 length = _attestations.length;\n        for (uint256 i = 0; i < length; ) {\n            $attestations[_attestations[i].attestationId] = _attestations[i];\n            $attestationIds[_attestations[i].attestee][\n                _attestations[i].schemaId\n            ].push(_attestations[i].attestationId);\n\n            unchecked {\n                ++i;\n            }\n        }\n        emit BatchAttestationRecorded(_attestations);\n    }\n\n    function update(UpdateRequest memory _updateRequest) external onlyAttestor {\n        Attestation memory attestation = $attestations[\n            _updateRequest.attestationId\n        ];\n        attestation.updatedDate = uint64(block.timestamp);\n        attestation.expirationDate = _updateRequest.expirationDate;\n        attestation.attestationData = _updateRequest.attestationData;\n        $attestations[_updateRequest.attestationId] = attestation;\n\n        emit AttestationUpdated(_updateRequest);\n    }\n\n    function updateBatch(\n        UpdateRequest[] memory _updateRequests\n    ) external onlyAttestor {\n        if (_updateRequests.length == 0) revert InvalidBatchLength();\n\n        uint256 length = _updateRequests.length;\n        for (uint256 i = 0; i < length; ) {\n            Attestation memory attestation = $attestations[\n                _updateRequests[i].attestationId\n            ];\n            attestation.updatedDate = uint64(block.timestamp);\n            attestation.expirationDate = _updateRequests[i].expirationDate;\n            attestation.attestationData = _updateRequests[i].attestationData;\n            $attestations[_updateRequests[i].attestationId] = attestation;\n\n            unchecked {\n                ++i;\n            }\n        }\n        emit BatchAttestationUpdated(_updateRequests);\n    }\n\n    function revoke(bytes32 attestationId) external {\n        address attestee = $attestations[attestationId].attestee;\n        address attestor = $attestations[attestationId].attestor;\n        if (msg.sender != attestee && msg.sender != attestor)\n            revert OnlyAttesteeOrAttestor();\n\n        $attestations[attestationId].revoked = true;\n        \n        delete $attestations[attestationId].attestationData;\n        //$attestations[attestationId].attestationData = \"\";\n\n        emit AttestationRevoked(attestationId);\n    }\n\n    function revokeBatch(bytes32[] memory attestationIds) external {\n        if (attestationIds.length == 0) revert InvalidBatchLength();\n        uint256 length = attestationIds.length;\n        for (uint256 i = 0; i < length; ) {\n            address attestee = $attestations[attestationIds[i]].attestee;\n            address attestor = $attestations[attestationIds[i]].attestor;\n\n            if (msg.sender != attestee && msg.sender != attestor)\n                revert OnlyAttesteeOrAttestor();\n\n            $attestations[attestationIds[i]].revoked = true;\n\n            delete $attestations[attestationIds[i]].attestationData;\n            // $attestations[attestationIds[i]].attestationData = \"\";\n\n            unchecked {\n                ++i;\n            }\n        }\n        emit BatchAttestationRevoked(attestationIds);\n    }\n\n    function getSchemasRegistry() external view returns (address) {\n        return address($schemasRegistry);\n    }\n\n    function getModulesRegistry() external view returns (address) {\n        return address($modulesRegistry);\n    }\n\n    function getAttestorsRegistry() external view returns (address) {\n        return address($attestorsRegistry);\n    }\n\n    function getAttestation(\n        bytes32 attestationId\n    ) external view returns (Attestation memory) {\n        return $attestations[attestationId];\n    }\n\n    function getAttestationIdsBySchema(\n        address attestee,\n        bytes32 schema\n    ) external view returns (bytes32[] memory) {\n        bytes32[] memory attestationIds = $attestationIds[attestee][schema];\n        return attestationIds;\n    }\n\n    function hasAttestation(\n        address attestee,\n        bytes32 schema\n    ) external view returns (bool) {\n        bytes32[] memory attestationIds = $attestationIds[attestee][schema];\n        return attestationIds.length > 0;\n    }\n\n    function getAttestationSchemaId(\n        bytes32 attestationId\n    ) external view returns (bytes32) {\n        return $attestations[attestationId].schemaId;\n    }\n}\n",
  "sourcePath": "/Users/jenya/IdeaProjects/karma/karma-metamask-contracts/contracts/MasterRegistry.sol",
  "compiler": {
    "name": "solc",
    "version": "0.8.20+commit.a1b79de6.Emscripten.clang"
  },
  "schemaVersion": "3.4.14",
  "updatedAt": "2023-08-04T19:57:18.332Z",
  "devdoc": {
    "kind": "dev",
    "methods": {
      "owner()": {
        "details": "Returns the address of the current owner."
      },
      "renounceOwnership()": {
        "details": "Leaves the contract without owner. It will not be possible to call `onlyOwner` functions. Can only be called by the current owner. NOTE: Renouncing ownership will leave the contract without an owner, thereby disabling any functionality that is only available to the owner."
      },
      "transferOwnership(address)": {
        "details": "Transfers ownership of the contract to a new account (`newOwner`). Can only be called by the current owner."
      }
    },
    "version": 1
  },
  "userdoc": {
    "kind": "user",
    "methods": {},
    "version": 1
  }
}